{
  "contractName": "CharityFunc",
  "abi": [
    {
      "constant": true,
      "inputs": [],
      "name": "name",
      "outputs": [
        {
          "name": "",
          "type": "string"
        }
      ],
      "payable": false,
      "stateMutability": "view",
      "type": "function",
      "signature": "0x06fdde03"
    },
    {
      "constant": true,
      "inputs": [],
      "name": "totalSupply",
      "outputs": [
        {
          "name": "",
          "type": "uint256"
        }
      ],
      "payable": false,
      "stateMutability": "view",
      "type": "function",
      "signature": "0x18160ddd"
    },
    {
      "constant": false,
      "inputs": [
        {
          "name": "_from",
          "type": "address"
        },
        {
          "name": "_to",
          "type": "address"
        },
        {
          "name": "_value",
          "type": "uint256"
        }
      ],
      "name": "transferFrom",
      "outputs": [
        {
          "name": "",
          "type": "bool"
        }
      ],
      "payable": false,
      "stateMutability": "nonpayable",
      "type": "function",
      "signature": "0x23b872dd"
    },
    {
      "constant": true,
      "inputs": [],
      "name": "returnOwnership",
      "outputs": [
        {
          "name": "",
          "type": "address"
        }
      ],
      "payable": false,
      "stateMutability": "view",
      "type": "function",
      "signature": "0x297d1a34"
    },
    {
      "constant": true,
      "inputs": [],
      "name": "decimals",
      "outputs": [
        {
          "name": "",
          "type": "uint8"
        }
      ],
      "payable": false,
      "stateMutability": "view",
      "type": "function",
      "signature": "0x313ce567"
    },
    {
      "constant": true,
      "inputs": [],
      "name": "tokenRequestCount",
      "outputs": [
        {
          "name": "",
          "type": "uint16"
        }
      ],
      "payable": false,
      "stateMutability": "view",
      "type": "function",
      "signature": "0x51c33119"
    },
    {
      "constant": true,
      "inputs": [
        {
          "name": "_owner",
          "type": "address"
        }
      ],
      "name": "balanceOf",
      "outputs": [
        {
          "name": "balance",
          "type": "uint256"
        }
      ],
      "payable": false,
      "stateMutability": "view",
      "type": "function",
      "signature": "0x70a08231"
    },
    {
      "constant": true,
      "inputs": [],
      "name": "owner",
      "outputs": [
        {
          "name": "",
          "type": "address"
        }
      ],
      "payable": false,
      "stateMutability": "view",
      "type": "function",
      "signature": "0x8da5cb5b"
    },
    {
      "constant": true,
      "inputs": [],
      "name": "symbol",
      "outputs": [
        {
          "name": "",
          "type": "string"
        }
      ],
      "payable": false,
      "stateMutability": "view",
      "type": "function",
      "signature": "0x95d89b41"
    },
    {
      "constant": false,
      "inputs": [
        {
          "name": "_to",
          "type": "address"
        },
        {
          "name": "_value",
          "type": "uint256"
        }
      ],
      "name": "transfer",
      "outputs": [
        {
          "name": "",
          "type": "bool"
        }
      ],
      "payable": false,
      "stateMutability": "nonpayable",
      "type": "function",
      "signature": "0xa9059cbb"
    },
    {
      "constant": true,
      "inputs": [
        {
          "name": "",
          "type": "uint256"
        }
      ],
      "name": "peopleAdd",
      "outputs": [
        {
          "name": "",
          "type": "address"
        }
      ],
      "payable": false,
      "stateMutability": "view",
      "type": "function",
      "signature": "0xa935ad0a"
    },
    {
      "constant": true,
      "inputs": [
        {
          "name": "",
          "type": "uint256"
        }
      ],
      "name": "requestedUser",
      "outputs": [
        {
          "name": "",
          "type": "address"
        }
      ],
      "payable": false,
      "stateMutability": "view",
      "type": "function",
      "signature": "0xb322369a"
    },
    {
      "constant": true,
      "inputs": [],
      "name": "userID",
      "outputs": [
        {
          "name": "",
          "type": "uint16"
        }
      ],
      "payable": false,
      "stateMutability": "view",
      "type": "function",
      "signature": "0xe302418a"
    },
    {
      "constant": false,
      "inputs": [
        {
          "name": "newOwner",
          "type": "address"
        }
      ],
      "name": "transferOwnership",
      "outputs": [],
      "payable": false,
      "stateMutability": "nonpayable",
      "type": "function",
      "signature": "0xf2fde38b"
    },
    {
      "inputs": [],
      "payable": false,
      "stateMutability": "nonpayable",
      "type": "constructor",
      "signature": "constructor"
    },
    {
      "anonymous": false,
      "inputs": [
        {
          "indexed": false,
          "name": "_userAdd",
          "type": "address"
        }
      ],
      "name": "regCheck",
      "type": "event",
      "signature": "0x62606f08f05e9a905db5faec7730cca9b786766f61a9fb20734b7a2e10ad9191"
    },
    {
      "anonymous": false,
      "inputs": [
        {
          "indexed": false,
          "name": "_userAdd",
          "type": "address"
        },
        {
          "indexed": false,
          "name": "_name",
          "type": "string"
        }
      ],
      "name": "regSuccess",
      "type": "event",
      "signature": "0xb42fdd03aec288a6ea4eb3d40d073f60d978331ee05fceb98817e213cfe81351"
    },
    {
      "anonymous": false,
      "inputs": [
        {
          "indexed": true,
          "name": "from",
          "type": "address"
        },
        {
          "indexed": true,
          "name": "to",
          "type": "address"
        },
        {
          "indexed": false,
          "name": "value",
          "type": "uint256"
        }
      ],
      "name": "Transfer",
      "type": "event",
      "signature": "0xddf252ad1be2c89b69c2b068fc378daa952ba7f163c4a11628f55a4df523b3ef"
    },
    {
      "anonymous": false,
      "inputs": [
        {
          "indexed": true,
          "name": "previousOwner",
          "type": "address"
        },
        {
          "indexed": true,
          "name": "newOwner",
          "type": "address"
        }
      ],
      "name": "OwnershipTransferred",
      "type": "event",
      "signature": "0x8be0079c531659141344cd1fd0a4f28419497f9722a3daafe3b4186f6b6457e0"
    },
    {
      "constant": false,
      "inputs": [
        {
          "name": "_name",
          "type": "string"
        },
        {
          "name": "_password",
          "type": "string"
        },
        {
          "name": "_emailId",
          "type": "string"
        },
        {
          "name": "_key",
          "type": "string"
        }
      ],
      "name": "userDetails",
      "outputs": [],
      "payable": false,
      "stateMutability": "nonpayable",
      "type": "function",
      "signature": "0x6889a0d1"
    },
    {
      "constant": true,
      "inputs": [
        {
          "name": "_readUser",
          "type": "address"
        }
      ],
      "name": "readDetails",
      "outputs": [
        {
          "name": "",
          "type": "string"
        },
        {
          "name": "",
          "type": "string"
        },
        {
          "name": "",
          "type": "string"
        },
        {
          "name": "",
          "type": "string"
        }
      ],
      "payable": false,
      "stateMutability": "view",
      "type": "function",
      "signature": "0xe12ac468"
    },
    {
      "constant": true,
      "inputs": [],
      "name": "arrayListGet",
      "outputs": [
        {
          "name": "",
          "type": "address[50]"
        }
      ],
      "payable": false,
      "stateMutability": "view",
      "type": "function",
      "signature": "0xd8b328b3"
    },
    {
      "constant": false,
      "inputs": [
        {
          "name": "_token",
          "type": "uint256"
        }
      ],
      "name": "userTokenRequest",
      "outputs": [],
      "payable": false,
      "stateMutability": "nonpayable",
      "type": "function",
      "signature": "0x26aaadfa"
    },
    {
      "constant": true,
      "inputs": [],
      "name": "tokenReqList",
      "outputs": [
        {
          "name": "",
          "type": "address[10]"
        }
      ],
      "payable": false,
      "stateMutability": "view",
      "type": "function",
      "signature": "0x7f9406bb"
    },
    {
      "constant": true,
      "inputs": [
        {
          "name": "_readUser",
          "type": "address"
        }
      ],
      "name": "tokenDetails",
      "outputs": [
        {
          "name": "",
          "type": "uint256"
        }
      ],
      "payable": false,
      "stateMutability": "view",
      "type": "function",
      "signature": "0xdd4be683"
    },
    {
      "constant": false,
      "inputs": [
        {
          "name": "_readUser",
          "type": "address"
        }
      ],
      "name": "tokenReverse",
      "outputs": [
        {
          "name": "",
          "type": "bool"
        }
      ],
      "payable": false,
      "stateMutability": "nonpayable",
      "type": "function",
      "signature": "0xda8107f3"
    },
    {
      "constant": false,
      "inputs": [
        {
          "name": "_userIn",
          "type": "address"
        }
      ],
      "name": "userApproval",
      "outputs": [],
      "payable": true,
      "stateMutability": "payable",
      "type": "function",
      "signature": "0x7f0c579b"
    }
  ],
  "bytecode": "0x60806040523480156200001157600080fd5b50336000806101000a81548173ffffffffffffffffffffffffffffffffffffffff021916908373ffffffffffffffffffffffffffffffffffffffff1602179055506000600660ff16600a0a601f0290506200008681600254620001df64010000000002620022ca179091906401000000009004565b600281905550620000ee81600160003373ffffffffffffffffffffffffffffffffffffffff1673ffffffffffffffffffffffffffffffffffffffff16815260200190815260200160002054620001df64010000000002620022ca179091906401000000009004565b600160003373ffffffffffffffffffffffffffffffffffffffff1673ffffffffffffffffffffffffffffffffffffffff168152602001908152602001600020819055503373ffffffffffffffffffffffffffffffffffffffff16600073ffffffffffffffffffffffffffffffffffffffff167fddf252ad1be2c89b69c2b068fc378daa952ba7f163c4a11628f55a4df523b3ef836040518082815260200191505060405180910390a35033600360006101000a81548173ffffffffffffffffffffffffffffffffffffffff021916908373ffffffffffffffffffffffffffffffffffffffff160217905550620001fe565b6000808284019050838110151515620001f457fe5b8091505092915050565b612401806200020e6000396000f3fe608060405260043610610128576000357c0100000000000000000000000000000000000000000000000000000000900463ffffffff16806306fdde031461012d57806318160ddd146101bd57806323b872dd146101e857806326aaadfa1461027b578063297d1a34146102b6578063313ce5671461030d57806351c331191461033e5780636889a0d11461037157806370a08231146105fe5780637f0c579b146106635780637f9406bb146106a75780638da5cb5b146106fa57806395d89b4114610751578063a9059cbb146107e1578063a935ad0a14610854578063b322369a146108cf578063d8b328b31461094a578063da8107f31461099d578063dd4be68314610a06578063e12ac46814610a6b578063e302418a14610c79578063f2fde38b14610cac575b600080fd5b34801561013957600080fd5b50610142610cfd565b6040518080602001828103825283818151815260200191508051906020019080838360005b83811015610182578082015181840152602081019050610167565b50505050905090810190601f1680156101af5780820380516001836020036101000a031916815260200191505b509250505060405180910390f35b3480156101c957600080fd5b506101d2610d36565b6040518082815260200191505060405180910390f35b3480156101f457600080fd5b506102616004803603606081101561020b57600080fd5b81019080803573ffffffffffffffffffffffffffffffffffffffff169060200190929190803573ffffffffffffffffffffffffffffffffffffffff16906020019092919080359060200190929190505050610d40565b604051808215151515815260200191505060405180910390f35b34801561028757600080fd5b506102b46004803603602081101561029e57600080fd5b8101908080359060200190929190505050610f65565b005b3480156102c257600080fd5b506102cb6110f3565b604051808273ffffffffffffffffffffffffffffffffffffffff1673ffffffffffffffffffffffffffffffffffffffff16815260200191505060405180910390f35b34801561031957600080fd5b5061032261111c565b604051808260ff1660ff16815260200191505060405180910390f35b34801561034a57600080fd5b50610353611121565b604051808261ffff1661ffff16815260200191505060405180910390f35b34801561037d57600080fd5b506105fc6004803603608081101561039457600080fd5b81019080803590602001906401000000008111156103b157600080fd5b8201836020820111156103c357600080fd5b803590602001918460018302840111640100000000831117156103e557600080fd5b91908080601f016020809104026020016040519081016040528093929190818152602001838380828437600081840152601f19601f8201169050808301925050505050505091929192908035906020019064010000000081111561044857600080fd5b82018360208201111561045a57600080fd5b8035906020019184600183028401116401000000008311171561047c57600080fd5b91908080601f016020809104026020016040519081016040528093929190818152602001838380828437600081840152601f19601f820116905080830192505050505050509192919290803590602001906401000000008111156104df57600080fd5b8201836020820111156104f157600080fd5b8035906020019184600183028401116401000000008311171561051357600080fd5b91908080601f016020809104026020016040519081016040528093929190818152602001838380828437600081840152601f19601f8201169050808301925050505050505091929192908035906020019064010000000081111561057657600080fd5b82018360208201111561058857600080fd5b803590602001918460018302840111640100000000831117156105aa57600080fd5b91908080601f016020809104026020016040519081016040528093929190818152602001838380828437600081840152601f19601f820116905080830192505050505050509192919290505050611135565b005b34801561060a57600080fd5b5061064d6004803603602081101561062157600080fd5b81019080803573ffffffffffffffffffffffffffffffffffffffff169060200190929190505050611609565b6040518082815260200191505060405180910390f35b6106a56004803603602081101561067957600080fd5b81019080803573ffffffffffffffffffffffffffffffffffffffff169060200190929190505050611652565b005b3480156106b357600080fd5b506106bc61183a565b6040518082600a60200280838360005b838110156106e75780820151818401526020810190506106cc565b5050505090500191505060405180910390f35b34801561070657600080fd5b5061070f6118bb565b604051808273ffffffffffffffffffffffffffffffffffffffff1673ffffffffffffffffffffffffffffffffffffffff16815260200191505060405180910390f35b34801561075d57600080fd5b506107666118e0565b6040518080602001828103825283818151815260200191508051906020019080838360005b838110156107a657808201518184015260208101905061078b565b50505050905090810190601f1680156107d35780820380516001836020036101000a031916815260200191505b509250505060405180910390f35b3480156107ed57600080fd5b5061083a6004803603604081101561080457600080fd5b81019080803573ffffffffffffffffffffffffffffffffffffffff16906020019092919080359060200190929190505050611919565b604051808215151515815260200191505060405180910390f35b34801561086057600080fd5b5061088d6004803603602081101561087757600080fd5b8101908080359060200190929190505050611b3d565b604051808273ffffffffffffffffffffffffffffffffffffffff1673ffffffffffffffffffffffffffffffffffffffff16815260200191505060405180910390f35b3480156108db57600080fd5b50610908600480360360208110156108f257600080fd5b8101908080359060200190929190505050611b72565b604051808273ffffffffffffffffffffffffffffffffffffffff1673ffffffffffffffffffffffffffffffffffffffff16815260200191505060405180910390f35b34801561095657600080fd5b5061095f611ba7565b6040518082603260200280838360005b8381101561098a57808201518184015260208101905061096f565b5050505090500191505060405180910390f35b3480156109a957600080fd5b506109ec600480360360208110156109c057600080fd5b81019080803573ffffffffffffffffffffffffffffffffffffffff169060200190929190505050611c28565b604051808215151515815260200191505060405180910390f35b348015610a1257600080fd5b50610a5560048036036020811015610a2957600080fd5b81019080803573ffffffffffffffffffffffffffffffffffffffff169060200190929190505050611d72565b6040518082815260200191505060405180910390f35b348015610a7757600080fd5b50610aba60048036036020811015610a8e57600080fd5b81019080803573ffffffffffffffffffffffffffffffffffffffff169060200190929190505050611dbb565b6040518080602001806020018060200180602001858103855289818151815260200191508051906020019080838360005b83811015610b06578082015181840152602081019050610aeb565b50505050905090810190601f168015610b335780820380516001836020036101000a031916815260200191505b50858103845288818151815260200191508051906020019080838360005b83811015610b6c578082015181840152602081019050610b51565b50505050905090810190601f168015610b995780820380516001836020036101000a031916815260200191505b50858103835287818151815260200191508051906020019080838360005b83811015610bd2578082015181840152602081019050610bb7565b50505050905090810190601f168015610bff5780820380516001836020036101000a031916815260200191505b50858103825286818151815260200191508051906020019080838360005b83811015610c38578082015181840152602081019050610c1d565b50505050905090810190601f168015610c655780820380516001836020036101000a031916815260200191505b509850505050505050505060405180910390f35b348015610c8557600080fd5b50610c8e612148565b604051808261ffff1661ffff16815260200191505060405180910390f35b348015610cb857600080fd5b50610cfb60048036036020811015610ccf57600080fd5b81019080803573ffffffffffffffffffffffffffffffffffffffff16906020019092919050505061215c565b005b6040805190810160405280600c81526020017f48656c7048616e64436f696e000000000000000000000000000000000000000081525081565b6000600254905090565b60008073ffffffffffffffffffffffffffffffffffffffff168373ffffffffffffffffffffffffffffffffffffffff1614151515610d7d57600080fd5b600160008573ffffffffffffffffffffffffffffffffffffffff1673ffffffffffffffffffffffffffffffffffffffff168152602001908152602001600020548211151515610dcb57600080fd5b610e1d82600160008773ffffffffffffffffffffffffffffffffffffffff1673ffffffffffffffffffffffffffffffffffffffff168152602001908152602001600020546122b190919063ffffffff16565b600160008673ffffffffffffffffffffffffffffffffffffffff1673ffffffffffffffffffffffffffffffffffffffff16815260200190815260200160002081905550610eb282600160008673ffffffffffffffffffffffffffffffffffffffff1673ffffffffffffffffffffffffffffffffffffffff168152602001908152602001600020546122ca90919063ffffffff16565b600160008573ffffffffffffffffffffffffffffffffffffffff1673ffffffffffffffffffffffffffffffffffffffff168152602001908152602001600020819055508273ffffffffffffffffffffffffffffffffffffffff168473ffffffffffffffffffffffffffffffffffffffff167fddf252ad1be2c89b69c2b068fc378daa952ba7f163c4a11628f55a4df523b3ef846040518082815260200191505060405180910390a3600190509392505050565b600a600360169054906101000a900461ffff1661ffff1611151515611018576040517f08c379a00000000000000000000000000000000000000000000000000000000081526004018080602001828103825260378152602001807f4d6178696d756d20746f6b656e20726571756573742061636869657665642c2081526020017f506c656173652074727920616761696e206c617465722e00000000000000000081525060400191505060405180910390fd5b80604160003373ffffffffffffffffffffffffffffffffffffffff1673ffffffffffffffffffffffffffffffffffffffff16815260200190815260200160002081905550336037600360169054906101000a900461ffff1661ffff16600a8110151561108057fe5b0160006101000a81548173ffffffffffffffffffffffffffffffffffffffff021916908373ffffffffffffffffffffffffffffffffffffffff1602179055506001600360168282829054906101000a900461ffff160192506101000a81548161ffff021916908361ffff16021790555050565b60008060009054906101000a900473ffffffffffffffffffffffffffffffffffffffff16905090565b600681565b600360169054906101000a900461ffff1681565b7f62606f08f05e9a905db5faec7730cca9b786766f61a9fb20734b7a2e10ad919133604051808273ffffffffffffffffffffffffffffffffffffffff1673ffffffffffffffffffffffffffffffffffffffff16815260200191505060405180910390a13373ffffffffffffffffffffffffffffffffffffffff16600460003373ffffffffffffffffffffffffffffffffffffffff1673ffffffffffffffffffffffffffffffffffffffff16815260200190815260200160002060030160009054906101000a900473ffffffffffffffffffffffffffffffffffffffff1673ffffffffffffffffffffffffffffffffffffffff161415151561129e576040517f08c379a00000000000000000000000000000000000000000000000000000000081526004018080602001828103825260178152602001807f5573657220616c7265616479207265676973746572656400000000000000000081525060200191505060405180910390fd5b6032600360149054906101000a900461ffff1661ffff16111515156112c257600080fd5b83600460003373ffffffffffffffffffffffffffffffffffffffff1673ffffffffffffffffffffffffffffffffffffffff16815260200190815260200160002060000190805190602001906113189291906122e8565b5082600460003373ffffffffffffffffffffffffffffffffffffffff1673ffffffffffffffffffffffffffffffffffffffff168152602001908152602001600020600101908051906020019061136f9291906122e8565b5081600460003373ffffffffffffffffffffffffffffffffffffffff1673ffffffffffffffffffffffffffffffffffffffff16815260200190815260200160002060020190805190602001906113c69291906122e8565b5033600460003373ffffffffffffffffffffffffffffffffffffffff1673ffffffffffffffffffffffffffffffffffffffff16815260200190815260200160002060030160006101000a81548173ffffffffffffffffffffffffffffffffffffffff021916908373ffffffffffffffffffffffffffffffffffffffff160217905550336005600360149054906101000a900461ffff1661ffff1660328110151561146c57fe5b0160006101000a81548173ffffffffffffffffffffffffffffffffffffffff021916908373ffffffffffffffffffffffffffffffffffffffff16021790555080600460003373ffffffffffffffffffffffffffffffffffffffff1673ffffffffffffffffffffffffffffffffffffffff16815260200190815260200160002060040190805190602001906115019291906122e8565b506001600360148282829054906101000a900461ffff160192506101000a81548161ffff021916908361ffff1602179055507fb42fdd03aec288a6ea4eb3d40d073f60d978331ee05fceb98817e213cfe813513385604051808373ffffffffffffffffffffffffffffffffffffffff1673ffffffffffffffffffffffffffffffffffffffff16815260200180602001828103825283818151815260200191508051906020019080838360005b838110156115c85780820151818401526020810190506115ad565b50505050905090810190601f1680156115f55780820380516001836020036101000a031916815260200191505b50935050505060405180910390a150505050565b6000600160008373ffffffffffffffffffffffffffffffffffffffff1673ffffffffffffffffffffffffffffffffffffffff168152602001908152602001600020549050919050565b6000809054906101000a900473ffffffffffffffffffffffffffffffffffffffff1673ffffffffffffffffffffffffffffffffffffffff163373ffffffffffffffffffffffffffffffffffffffff161415156116ad57600080fd5b6116f681604160008473ffffffffffffffffffffffffffffffffffffffff1673ffffffffffffffffffffffffffffffffffffffff16815260200190815260200160002054611919565b506000604160008373ffffffffffffffffffffffffffffffffffffffff1673ffffffffffffffffffffffffffffffffffffffff1681526020019081526020016000208190555060008090505b600a8160ff1610156118365760378160ff16600a8110151561176057fe5b0160009054906101000a900473ffffffffffffffffffffffffffffffffffffffff1673ffffffffffffffffffffffffffffffffffffffff168273ffffffffffffffffffffffffffffffffffffffff161415611829578060ff16600360166101000a81548161ffff021916908361ffff160217905550600060378260ff16600a811015156117e957fe5b0160006101000a81548173ffffffffffffffffffffffffffffffffffffffff021916908373ffffffffffffffffffffffffffffffffffffffff1602179055505b8080600101915050611742565b5050565b611842612368565b6037600a806020026040519081016040528092919082600a80156118b1576020028201915b8160009054906101000a900473ffffffffffffffffffffffffffffffffffffffff1673ffffffffffffffffffffffffffffffffffffffff1681526020019060010190808311611867575b5050505050905090565b6000809054906101000a900473ffffffffffffffffffffffffffffffffffffffff1681565b6040805190810160405280600381526020017f484843000000000000000000000000000000000000000000000000000000000081525081565b60008073ffffffffffffffffffffffffffffffffffffffff168373ffffffffffffffffffffffffffffffffffffffff161415151561195657600080fd5b600160003373ffffffffffffffffffffffffffffffffffffffff1673ffffffffffffffffffffffffffffffffffffffff1681526020019081526020016000205482111515156119a457600080fd5b6119f682600160003373ffffffffffffffffffffffffffffffffffffffff1673ffffffffffffffffffffffffffffffffffffffff168152602001908152602001600020546122b190919063ffffffff16565b600160003373ffffffffffffffffffffffffffffffffffffffff1673ffffffffffffffffffffffffffffffffffffffff16815260200190815260200160002081905550611a8b82600160008673ffffffffffffffffffffffffffffffffffffffff1673ffffffffffffffffffffffffffffffffffffffff168152602001908152602001600020546122ca90919063ffffffff16565b600160008573ffffffffffffffffffffffffffffffffffffffff1673ffffffffffffffffffffffffffffffffffffffff168152602001908152602001600020819055508273ffffffffffffffffffffffffffffffffffffffff163373ffffffffffffffffffffffffffffffffffffffff167fddf252ad1be2c89b69c2b068fc378daa952ba7f163c4a11628f55a4df523b3ef846040518082815260200191505060405180910390a36001905092915050565b600581603281101515611b4c57fe5b016000915054906101000a900473ffffffffffffffffffffffffffffffffffffffff1681565b603781600a81101515611b8157fe5b016000915054906101000a900473ffffffffffffffffffffffffffffffffffffffff1681565b611baf61238c565b6005603280602002604051908101604052809291908260328015611c1e576020028201915b8160009054906101000a900473ffffffffffffffffffffffffffffffffffffffff1673ffffffffffffffffffffffffffffffffffffffff1681526020019060010190808311611bd4575b5050505050905090565b600080604160008473ffffffffffffffffffffffffffffffffffffffff1673ffffffffffffffffffffffffffffffffffffffff1681526020019081526020016000208190555060008090505b600a8160ff161015611d685760378160ff16600a81101515611c9257fe5b0160009054906101000a900473ffffffffffffffffffffffffffffffffffffffff1673ffffffffffffffffffffffffffffffffffffffff168373ffffffffffffffffffffffffffffffffffffffff161415611d5b578060ff16600360166101000a81548161ffff021916908361ffff160217905550600060378260ff16600a81101515611d1b57fe5b0160006101000a81548173ffffffffffffffffffffffffffffffffffffffff021916908373ffffffffffffffffffffffffffffffffffffffff1602179055505b8080600101915050611c74565b5060019050919050565b6000604160008373ffffffffffffffffffffffffffffffffffffffff1673ffffffffffffffffffffffffffffffffffffffff168152602001908152602001600020549050919050565b606080606080600460008673ffffffffffffffffffffffffffffffffffffffff1673ffffffffffffffffffffffffffffffffffffffff168152602001908152602001600020600001600460008773ffffffffffffffffffffffffffffffffffffffff1673ffffffffffffffffffffffffffffffffffffffff168152602001908152602001600020600201600460008873ffffffffffffffffffffffffffffffffffffffff1673ffffffffffffffffffffffffffffffffffffffff168152602001908152602001600020600101600460008973ffffffffffffffffffffffffffffffffffffffff1673ffffffffffffffffffffffffffffffffffffffff168152602001908152602001600020600401838054600181600116156101000203166002900480601f016020809104026020016040519081016040528092919081815260200182805460018160011615610100020316600290048015611f5e5780601f10611f3357610100808354040283529160200191611f5e565b820191906000526020600020905b815481529060010190602001808311611f4157829003601f168201915b50505050509350828054600181600116156101000203166002900480601f016020809104026020016040519081016040528092919081815260200182805460018160011615610100020316600290048015611ffa5780601f10611fcf57610100808354040283529160200191611ffa565b820191906000526020600020905b815481529060010190602001808311611fdd57829003601f168201915b50505050509250818054600181600116156101000203166002900480601f0160208091040260200160405190810160405280929190818152602001828054600181600116156101000203166002900480156120965780601f1061206b57610100808354040283529160200191612096565b820191906000526020600020905b81548152906001019060200180831161207957829003601f168201915b50505050509150808054600181600116156101000203166002900480601f0160208091040260200160405190810160405280929190818152602001828054600181600116156101000203166002900480156121325780601f1061210757610100808354040283529160200191612132565b820191906000526020600020905b81548152906001019060200180831161211557829003601f168201915b5050505050905093509350935093509193509193565b600360149054906101000a900461ffff1681565b6000809054906101000a900473ffffffffffffffffffffffffffffffffffffffff1673ffffffffffffffffffffffffffffffffffffffff163373ffffffffffffffffffffffffffffffffffffffff161415156121b757600080fd5b600073ffffffffffffffffffffffffffffffffffffffff168173ffffffffffffffffffffffffffffffffffffffff16141515156121f357600080fd5b8073ffffffffffffffffffffffffffffffffffffffff166000809054906101000a900473ffffffffffffffffffffffffffffffffffffffff1673ffffffffffffffffffffffffffffffffffffffff167f8be0079c531659141344cd1fd0a4f28419497f9722a3daafe3b4186f6b6457e060405160405180910390a3806000806101000a81548173ffffffffffffffffffffffffffffffffffffffff021916908373ffffffffffffffffffffffffffffffffffffffff16021790555050565b60008282111515156122bf57fe5b818303905092915050565b60008082840190508381101515156122de57fe5b8091505092915050565b828054600181600116156101000203166002900490600052602060002090601f016020900481019282601f1061232957805160ff1916838001178555612357565b82800160010185558215612357579182015b8281111561235657825182559160200191906001019061233b565b5b50905061236491906123b0565b5090565b61014060405190810160405280600a90602082028038833980820191505090505090565b61064060405190810160405280603290602082028038833980820191505090505090565b6123d291905b808211156123ce5760008160009055506001016123b6565b5090565b9056fea165627a7a72305820c18a5daddd7164226b09f41db9dc2c9d69e74a54f53f713cdc2dfacf932bb61e0029",
  "source": "pragma solidity >=0.5.0;\n\n/**\n * @title CharityFunc\n * @dev The CharityFunc contract has the basic functionalities of the application, and provides user read ,display,request,approval\n * functions.\n */\n\nimport \"./TokenFunc.sol\";\n\ncontract CharityFunc is Token  {\n\n    address payable owner;\n\n/**\n* @dev The structure 'godPeople' is for user information store.\n*/\n\n    struct godPeople {\n        string name;\n        string password;\n        string emailId;\n        address payable godAdd;\n        string key;\n    }\n\n/**\n* @dev userID & tokenRequestCount are counters for the number of user registrations & Token requests respectively.\n*/\n\n    uint16 public userID;\n    uint16 public tokenRequestCount;\n\n/**\n* @dev The CharityFunc constructor sets the original `owner` of the contract to the sender\n* account.\n*/\n\n    constructor() public {\n        owner = msg.sender;\n    }\n\n    event regCheck(address payable _userAdd);\n    event regSuccess(address payable _userAdd,string _name);\n\n/**\n* @dev userDonation is the mapping of key address with value type of godPeople structure.\n*/\n\n    mapping(address => godPeople) userDonation;\n\n/**\n* @dev 'peopleAdd' is an array to store the address of registered users.Inorder to not get in a out of gas exception \n* of dynamic arrays size we are given a limited amount of user for registration fixed to 50. \n*/\n\n    address[50] public peopleAdd;\n    \n/**\n* @dev 'requestedUser' is an array to store the address of users requesting for tokens.Inorder to not get in a out of gas exception \n* of dynamic arrays size we are given a limited amount of user for registration fixed to 10. \n*/\n    \n    address[10] public requestedUser;\n\n\n/**\n* @dev Allows the user to register for new account in our application and details will be saved saved blockchain using userDetails.\n* @param _name The name of user.\n* @param _password The password for user.\n* @param _emailId The email for user.\n* @param _key A key to identify which type of user is registering(1.Person,2.Charity,3.Goods vendor).\n*/\n\n    function userDetails(string memory _name,string memory _password,string memory _emailId,string memory _key) public {\n\n        emit regCheck(msg.sender);\n\n        require(userDonation[msg.sender].godAdd != msg.sender,\"User already registered\");\n        require(userID<=50);\n\n        userDonation[msg.sender].name = _name;\n        userDonation[msg.sender].password = _password;\n        userDonation[msg.sender].emailId = _emailId;\n        userDonation[msg.sender].godAdd = msg.sender;\n        peopleAdd[userID] = msg.sender;\n        userDonation[msg.sender].key = _key;\n        userID+=1;\n\n\n        emit regSuccess(msg.sender,_name);\n    }\n\n/**\n* @dev Allows the application to read information of registered user from blockchain.\n* @param _readUser The address of the user to which the data to be displayed.\n*/\n\n    function readDetails(address _readUser) public view returns(string memory, string memory,string memory,string memory){\n\n        return (userDonation[_readUser].name,userDonation[_readUser].emailId,userDonation[_readUser].password,userDonation[_readUser].key);\n    }\n\n/**\n* @dev Allows the application to list all the registered users.\n*/\n\n    function arrayListGet() public view returns(address[50] memory) {\n            return(peopleAdd);\n    }\n\n/**\n* @dev requestToken is the mapping of key address with value uint256.\n*/\n\n    mapping(address => uint256) requestToken;\n\n/**\n* @dev Allows the user to request for HelpingHandTokens\n* @param _token The amount of token needed by the user.\n*/\n\n    function userTokenRequest(uint256 _token) public {\n        \n        require(tokenRequestCount<=10,\"Maximum token request achieved, Please try again later.\");\n        \n        requestToken[msg.sender] = _token;\n        requestedUser[tokenRequestCount] = msg.sender;\n        tokenRequestCount+=1;\n    }\n    \n/**\n* @dev Allows the application to list all the Users requested for Tokens.\n*/\n\n    function tokenReqList() public view returns(address[10] memory) {\n            return(requestedUser);\n    }\n\n\n/**\n* @dev Allows the application to read information of token requested by each user from blockchain.\n* @param _readUser The address of the user which requested for HelpingHand Token.\n*/\n\n    function tokenDetails(address _readUser) public view returns(uint256){\n\n        return (requestToken[_readUser]);\n    } \n\n/**\n* @dev Allows the application to delete/remove information of token requested by each user from blockchain.\n* @param _readUser The address of the user which requested for HelpingHand Token.\n*/\n\n    function tokenReverse(address _readUser) public returns(bool){\n\n        requestToken[_readUser] = 0;\n        for(uint8 i = 0;i<requestedUser.length;i++)   {\n            if(_readUser == requestedUser[i])   {\n                tokenRequestCount = i;\n                requestedUser[i] = 0x0000000000000000000000000000000000000000;\n            }\n        }\n        return true;\n    }        \n    \n\n/**\n* @dev Allows the owner to transfer tokens to requested user if conditions are met & delete the request from requestedUser[] \n* array.\n* @param _userIn The address of the requested user.\n*/\n\n    function userApproval(address payable _userIn) payable public onlyOwner {\n        transfer(_userIn,requestToken[_userIn]);\n        requestToken[_userIn] = 0;\n        for(uint8 i = 0;i<requestedUser.length;i++)   {\n            if(_userIn == requestedUser[i])   {\n                tokenRequestCount = i;\n                requestedUser[i] = 0x0000000000000000000000000000000000000000;\n            }\n        }\n    }\n}",
  "sourcePath": "/home/akshaysrinivas/Main_Project/charity-chain-angular/contracts/CharityFunc.sol",
  "compiler": {
    "name": "solc",
    "version": "0.5.0+commit.1d4f565a.Emscripten.clang"
  },
  "schemaVersion": "3.0.1",
  "updatedAt": "2019-02-28T10:01:52.993Z",
  "devdoc": {
    "methods": {
      "arrayListGet()": {
        "details": "Allows the application to list all the registered users."
      },
      "balanceOf(address)": {
        "details": "Gets the balance of the specified address.",
        "params": {
          "_owner": "The address to query the the balance of."
        },
        "return": "An uint256 representing the amount owned by the passed address."
      },
      "constructor": {
        "details": "The CharityFunc constructor sets the original `owner` of the contract to the sender account."
      },
      "readDetails(address)": {
        "details": "Allows the application to read information of registered user from blockchain.",
        "params": {
          "_readUser": "The address of the user to which the data to be displayed."
        }
      },
      "returnOwnership()": {
        "details": "Allows to return the address of the current Owner."
      },
      "tokenDetails(address)": {
        "details": "Allows the application to read information of token requested by each user from blockchain.",
        "params": {
          "_readUser": "The address of the user which requested for HelpingHand Token."
        }
      },
      "tokenReqList()": {
        "details": "Allows the application to list all the Users requested for Tokens."
      },
      "tokenReverse(address)": {
        "details": "Allows the application to delete/remove information of token requested by each user from blockchain.",
        "params": {
          "_readUser": "The address of the user which requested for HelpingHand Token."
        }
      },
      "totalSupply()": {
        "details": "total number of tokens in existence"
      },
      "transfer(address,uint256)": {
        "details": "transfer token for a specified address",
        "params": {
          "_to": "The address to transfer to.",
          "_value": "The amount to be transferred."
        }
      },
      "transferFrom(address,address,uint256)": {
        "details": "Transfer tokens from one address to another",
        "params": {
          "_from": "address The address which you want to send tokens from",
          "_to": "address The address which you want to transfer to",
          "_value": "uint256 the amount of tokens to be transferred"
        }
      },
      "transferOwnership(address)": {
        "details": "Allows the current owner to transfer control of the contract to a newOwner.",
        "params": {
          "newOwner": "The address to transfer ownership to."
        }
      },
      "userApproval(address)": {
        "details": "Allows the owner to transfer tokens to requested user if conditions are met & delete the request from requestedUser[]  array.",
        "params": {
          "_userIn": "The address of the requested user."
        }
      },
      "userDetails(string,string,string,string)": {
        "details": "Allows the user to register for new account in our application and details will be saved saved blockchain using userDetails.",
        "params": {
          "_emailId": "The email for user.",
          "_key": "A key to identify which type of user is registering(1.Person,2.Charity,3.Goods vendor).",
          "_name": "The name of user.",
          "_password": "The password for user."
        }
      },
      "userTokenRequest(uint256)": {
        "details": "Allows the user to request for HelpingHandTokens",
        "params": {
          "_token": "The amount of token needed by the user."
        }
      }
    }
  },
  "userdoc": {
    "methods": {}
  }
}